:020000040800F2
:10000000F0060020113200084502000847020008EF
:100010004B0200084F0200085302000800000000D5
:10002000000000000000000000000000570200086F
:1000300059020008000000005B0200085D02000891
:100040002B3200082B3200082B3200082B3200081C
:100050002B3200082B3200082B3200082B3200080C
:100060002B3200082B3200082B3200082B320008FC
:100070002B3200082B3200082B3200082B320008EC
:100080002B3200082B3200082B3200082B320008DC
:100090002B3200082B3200082B3200082B320008CC
:1000A0002B3200082B3200082B3200082B320008BC
:1000B0002B3200082B320008690200082B3200089E
:1000C0002B3200082B3200082B3200082B3200089C
:1000D0002B3200082B3200082B3200082B3200088C
:1000E0002B3200082B3200082B32000800F002F8F7
:1000F00000F03FF80AA090E8000C82448344AAF183
:100100000107DA4501D100F034F8AFF2090EBAE880
:100110000F0013F0010F18BFFB1A43F0010318473B
:1001200080350000A0350000103A24BF78C878C19F
:10013000FAD8520724BF30C830C144BF04680C60ED
:10014000704700000023002400250026103A28BF35
:1001500078C1FBD8520728BF30C148BF0B60704739
:10016000642903F0B580002070471FB51FBD10B58E
:1001700010BD03F071F91146FFF7F7FF00F019F811
:1001800003F08FF903B4FFF7F2FF03BC03F094F917
:1001900010B545F2555001F075FE062001F075FED0
:1001A00040F21B6001F074FE01F075FE01F078FE74
:1001B00010BD02F095FB4FF4E1334FF48062511013
:1001C0001C4802F0C0F902F0CFFB02F0C9FA02F0BD
:1001D00011FE02F06FFF1849087002F0F7FB27E0EC
:1001E0004FF40051154800F0AEFA50B9124802F031
:1001F00076FD13480078B8B9C121902002F0E8FEDE
:1002000012E04FF480510D4800F09DFA30B902F031
:1002100093FDD021084602F0DBFE05E002F088FDE8
:10022000BF21084602F0D4FE4CF2503002F051F9E2
:10023000D6E700000008014000000020000C01404B
:1002400050000020704700BFFEE700BFFEE700BF80
:10025000FEE700BFFEE77047704770470D48006833
:10026000401C0C490860704710B501210A4801F094
:100270002FFA0A48006820B108480068401E074964
:1002800008600748006820B105480068401E04491E
:10029000086010BD4C000020000800400C00002049
:1002A000100000200CB50020019000906C48006800
:1002B00040F480306A49086000BF6948006800F473
:1002C000003000900198401C0190009818B90198E6
:1002D000B0F5A06FF1D16248006800F4003010B1B1
:1002E0000120009001E0002000900098012843D1F7
:1002F0005C48006840F010005A49086008460068F1
:1003000020F0030008600846006840F00200086022
:10031000534840685249486008464068486008466B
:10032000406840F4806048600846406820F47C10D3
:1003300048600846406840F4E81048600846006895
:1003400040F08070086000BF4548006800F0007011
:100350000028F9D04248406820F003004049486036
:100360000846406840F00200486000BF3C484068D2
:1003700000F00C000828F9D10CBD10B5FFF792FF72
:1003800010BD10B53648006840F0010034490860DF
:1003900008464068344908403149486008460068CA
:1003A000324908402E4908600846006820F4802041
:1003B00008600846406820F4FE0048604FF41F00C3
:1003C0008860FFF7DAFF4FF000602949086010BD30
:1003D00010B5002100200022214B5B6803F00C01C6
:1003E00021B1042906D0082928D107E0214B224C4D
:1003F000236027E01F4B204C236023E0184B5B68F1
:1004000003F47010164B5B6803F48032022303EB95
:10041000904022B9194B4343174C23600DE0104B19
:100420005B6803F4003323B1144B4343124C236045
:1004300003E0104B4343104C236003E00D4B0E4C84
:10044000236000BF00BF064B5B68C3F303130C4C73
:10045000E15C094B1B68CB40074C236010BD0000DA
:1004600000100240002002400000FFF8FFFFF6FEEF
:1004700008ED00E000127A001800002000093D009D
:100480001C00002031490143314A1160704770B5AA
:10049000002100230F22C47804B32D4C246804F4F7
:1004A000E064C4F5E064210AC1F10403CA40447861
:1004B00004FA03F18478144021430901254C06789D
:1004C000A155047804F01F050124AC4005786D1196
:1004D000AD0005F1E025C5F8004109E0047804F01D
:1004E0001F050124AC401C4D0678761145F82640C6
:1004F00070BD1A4A0A400243154B1B1F1A60704711
:1005000039B1134A121D12680243114B1B1D1A60A8
:1005100006E00F4A121D126882430D4B1B1D1A6024
:100520007047042808D14FF0E021096941F0040127
:100530004FF0E022116107E04FF0E021096921F05E
:1005400004014FF0E0221161704700000000FA053D
:100550000CED00E000E400E080E100E080FFFF1F20
:1005600010B50446CC48844208D10121042001F092
:100570003FFC0021042001F03BFC46E0C7488442D8
:1005800008D10121082001F033FC0021082001F0EE
:100590002FFC3AE0C248844208D10121102001F02A
:1005A00027FC0021102001F023FC2EE0BD488442EE
:1005B00008D10121202001F01BFC0021202001F0A6
:1005C00017FC22E0B848844208D10121402001F004
:1005D0000FFC0021402001F00BFC16E0B3488442E0
:1005E00008D10121802001F003FC0021802001F0CE
:1005F000FFFB0AE0AE48844207D10121801501F0DB
:10060000F7FB0021A01501F0F3FB10BD10B501218F
:10061000084601F0EDFB0021012001F0E9FB10BDCF
:100620002DE9F04102460025002600200023002489
:10063000002791F803C00CF00F0591F803C00CF0EF
:10064000100CBCF1000F03D091F802C04CEA050574
:1006500091F800C0BCF1000F31D0146800202BE0ED
:100660004FF0010C0CFA00F3B1F800C00CEA0306DD
:100670009E4220D183004FF00F0C0CFA03F7BC43CD
:1006800005FA03FC4CEA040491F803C0BCF1280FFE
:1006900006D14FF0010C0CFA00FCC2F814C00AE0BD
:1006A00091F803C0BCF1480F05D14FF0010C0CFAD2
:1006B00000FCC2F810C0401C0828D1D31460B1F867
:1006C00000C0BCF1FF0F34DD546800202EE000F1C3
:1006D000080C4FF0010808FA0CF3B1F800C00CEA5E
:1006E00003069E4221D183004FF00F0C0CFA03F752
:1006F000BC4305FA03FC4CEA040491F803C0BCF1C6
:10070000280F05D100F1080C08FA0CF8C2F8148083
:1007100091F803C0BCF1480F07D100F1080C4FF06D
:10072000010808FA0CF8C2F81080401C0828CED343
:100730005460BDE8F0814FF6FF71018002218170A5
:100740000421C17070470246002093680B400BB132
:10075000012000E0002070470146886880B27047A1
:1007600002460020D3680B400BB1012000E00020BE
:1007700070470146C86880B27047016170474161A7
:1007800070470AB1016100E041617047C160704784
:100790004FF480320A438261816182618269826999
:1007A000704702460020434B18684FF6807318408C
:1007B00040EA021008433F4B186070473E49C86149
:1007C0007047F0B50A46002300240021002500F000
:1007D0000046B6F1004F02D1364EF16901E0354EC8
:1007E0007168C0F3034583B200F44016B6F5401FAC
:1007F00008D121F070612F4E766826F070662D4F7B
:100800007E6012E000F48016B6F5801F06D1032644
:1008100006FA05F4A14341F0706106E0460D360189
:1008200003FA06F6B14341F0706122B1460D36017C
:1008300003FA06F6314300F00046B6F1004F02D14C
:100840001C4EF16101E01B4E7160F0BD30B500221D
:100850008B071C0F0F2303FA04F2164B08338C107E
:1008600053F824309343134C08348D1044F825304A
:1008700023468C1053F824308C07240F00FA04F41C
:1008800023430C4C08348D1044F8253030BD0A4900
:10089000DC3108607047000000080140000C014096
:1008A000001001400014014000180140001C0140EC
:1008B00000200140000001400000204210B5044625
:1008C000FE48844208D10121C01401F091FA0021B0
:1008D000E01401F08DFAC4E0B4F1804F08D1012199
:1008E000084601F092FA0021012001F08EFAB8E0EA
:1008F000F348844208D10121022001F086FA002148
:10090000022001F082FAACE0EE48844208D10121D5
:10091000042001F07AFA0021042001F076FAA0E028
:10092000E948844208D10121082001F06EFA002133
:10093000082001F06AFA94E0E448844208D10121D9
:10094000102001F062FA0021102001F05EFA88E028
:10095000DF48844208D10121202001F056FA00210D
:10096000202001F052FA7CE0DA48844208D10121CB
:10097000401401F03DFA0021601401F039FA70E0F2
:10098000D548844209D10121C80401F031FA00217F
:100990004FF4002001F02CFA63E0D048844209D1E2
:1009A0000121080501F024FA00214FF4801001F024
:1009B0001FFA56E0CA48844209D10121480501F0D6
:1009C00017FA00214FF4001001F012FA49E0C5486F
:1009D000844208D10121402001F017FA0021402073
:1009E00001F013FA3DE0C048844208D10121802083
:1009F00001F00BFA0021802001F007FA31E0BB483A
:100A0000844208D10121801501F0FFF90021A015D1
:100A100001F0FBF925E0B648844209D10121080420
:100A200001F0E6F900214FF4803001F0E1F918E01F
:100A3000B048844209D10121480401F0D9F90021CC
:100A40004FF4003001F0D4F90BE0AB48844208D1F8
:100A50000121880401F0CCF900214FF4802001F03D
:100A6000C7F910BD00220288944B98420ED0994BD2
:100A700098420BD0B0F1804F08D0914B984205D0EE
:100A8000904B984202D0904B984204D14FF68F730E
:100A90001A404B881A438D4B984207D08C4B984292
:100AA00004D04FF6FF431A40CB881A4302808B884C
:100AB00083850B880385814B98420BD0854B9842E8
:100AC00008D08B4B984205D08A4B984202D08A4B73
:100AD000984201D10B7A038601238382704770B557
:100AE000002400220023058C4FF6FE763540058455
:100AF000028C8388048B4FF68F752C40B51E2C40DA
:100B00000D882C43751E2A400D892A434D882A439F
:100B10006A4DA8420BD06F4DA84208D0744DA84230
:100B200005D0744DA84202D0734DA84213D14FF6A0
:100B3000F7752A404D892A434FF6FB752A408D8868
:100B40002A434FF6FF652B404FF6FF552B408D890A
:100B50002B43CD892B4383800483CD8885860284F3
:100B600070BD70B5002400220023058C4FF6EF768F
:100B700035400584028C8388048B48F6FF752C4031
:100B80004FF6FF452C400D884FF6FF7606EA052507
:100B90002C434FF6DF752A400D8906EA05152A43D6
:100BA0004D8806EA05152A43444DA84202D0494D16
:100BB000A8421DD14FF67F752A404D894FF6FF762A
:100BC00006EA05152A434FF6BF752A408D8806EAC6
:100BD00005152A434FF6FF352B404FF2FF752B408A
:100BE0008D8906EA85052B43CD8906EA85052B43C9
:100BF00083800483CD880587028470BD70B500248E
:100C000000220023058C4FF6FF6635400584028CD8
:100C10008388848B4FF68F752C404FF6FC752C40E3
:100C20000D882C434FF6FF552A400D894FF6FF766D
:100C300006EA05252A434D8806EA05252A431F4D65
:100C4000A84202D0234DA8421DD14FF2FF752A4081
:100C50004D894FF6FF7606EA05252A434FF6FF3504
:100C60002A408D8806EA05252A434EF6FF752B405B
:100C70004DF6FF752B408D8906EA05152B43CD896E
:100C800006EA05152B4383808483CD8885870284FB
:100C900070BD70B5002200230024058C4EF6FF764F
:100CA00035400584038C8488828B48F6FF752A4082
:100CB0004FF6FF452A400D8820E00000002C01403F
:100CC0000004004000080040000C004000100040FC
:100CD0000014004000340140004C0140005001402D
:100CE0000054014000180040001C0040002000405B
:100CF0000040014000440140004801404FF6FF76AB
:100D000006EA05252A434DF6FF752B400D8906EAB4
:100D100005352B434D8806EA05352B43FA4DA8428D
:100D200002D0FA4DA84208D14BF6FF752C408D89B0
:100D30004FF6FF7606EA85152C4384808283CD88A2
:100D4000A0F84050038470BD828B4FF2FF331A40ED
:100D50008283828B4FF6FF7303EA01231A43828357
:100D60007047F0B50C461546002200210026078C7E
:100D70004EF6FF7C07EA0C070784828B018C4FF646
:100D8000FF7707EA043640F6FF473A404FF6FF7711
:100D900007EA05273A434FF6FF7707EA03373A4356
:100DA000D94FB8420ED0D94FB8420BD0B0F1804FD6
:100DB00008D0D74FB84205D0D64FB84202D0D64F50
:100DC000B84206D14DF6FF77394046F48057394393
:100DD00005E047F6FF57394044F480573943828392
:100DE0000184F0BD828B4FF6F3731A408283828BAD
:100DF0000A4382837047F0B50C4615460022002155
:100E00000026078C4FF6FF6C07EA0C070784828BDD
:100E1000018C4FF6FF7707EA04264FF60C773A402D
:100E20004FF6FF7707EA03172F433A43B64FB8420E
:100E30000ED0B64FB8420BD0B0F1804F08D0B44FAF
:100E4000B84205D0B34FB84202D0B34FB84206D132
:100E50004FF6FF57394046F48077394305E04FF2AB
:100E6000FF57394044F48077394382830184F0BDD1
:100E7000028B4FF2FF331A400283028B4FF6FF734F
:100E800003EA01231A4302837047F0B50C46154666
:100E9000002200210026078C4FF6EF7C07EA0C07A2
:100EA0000784028B018C4FF6FF7707EA041640F6A1
:100EB000FF473A404FF6FF7707EA03373A434FF6CA
:100EC000FF7707EA05273A438F4FB8420ED08F4F7E
:100ED000B8420BD0B0F1804F08D08D4FB84205D04A
:100EE0008C4FB84202D08C4FB84206D14FF6DF7714
:100EF000394046F01007394305E04FF65F77394037
:100F000044F01007394302830184F0BD028B4FF691
:100F1000F3731A400283028B0A4302837047F0B5D1
:100F20000C46154600220021068C4FF6FE773E4007
:100F30000684028B018C4FF60C7632407E1C06EA4A
:100F400003162E433243704EB0420ED06F4EB04265
:100F50000BD0B0F1804F08D06D4EB04205D06D4E31
:100F6000B04202D06C4EB04206D14FF6FD76314011
:100F700044F00106314305E04FF6F576314044F088
:100F80000106314302830184F0BD70B505460C466D
:100F90005D4885420ED05D4885420BD0B5F1804F4B
:100FA00008D05B48854205D05A48854202D05A484D
:100FB000854200D100E000BF208850B92389A28873
:100FC00061882846FFF7ABFFE1882846FFF79EFFC0
:100FD00025E0208804280AD12389A2886188284630
:100FE000FFF753FFE1882846FFF742FF17E020880C
:100FF00008280AD12389A28861882846FFF7FBFECA
:10100000E1882846FFF7EEFE09E02389A28861887F
:101010002846FFF7A6FEE1882846FFF795FE70BD3B
:101020002DE9F04105460C4600260127608808B9E5
:10103000022600E00026A088012801D1022700E056
:1010400001272088A0B92389A28861882846FFF754
:1010500066FFE1882846FFF759FF23893A46314663
:101060002846FFF712FFE1882846FFF701FF13E04B
:101070002389A28861882846FFF707FFE188284670
:10108000FFF7F6FE23893A4631462846FFF747FF29
:10109000E1882846FFF73AFFBDE8F0810A884B88CF
:1010A0001A438B881A43CB881A430B891A434B89FE
:1010B0001A438B891A43A0F8442070474FF6FF71FA
:1010C000818000210180C180418001727047002130
:1010D000018041808180C180018141818181C18104
:1010E0007047002101804180012181800021C18061
:1010F000018170470021018041808180C180018190
:101100004181818170470000002C01400034014082
:101110000004004000080040000C004021B102889B
:1011200042F00102028004E002884FF6FE731A408A
:101130000280704731B1B0F8442042F40042A0F878
:10114000442005E0B0F84420C2F30E02A0F8442089
:1011500070471AB183890B43838102E083898B43F3
:10116000838170478182704741EA0203A0F84830CA
:1011700070471AB183890B43838102E083898B43D3
:101180008381704701894FF6F872114001817047E1
:101190000A46002101894FF68F73194011430181DE
:1011A000704730B504460D4629462046FFF7F0FF4C
:1011B000208940F00700208130BD2DE9F041044630
:1011C0000D4616461F46602D06D13B46012231468C
:1011D0002046FFF75AFE05E03B46012231462046F5
:1011E000FFF79DFE29462046FFF7D2FF208940F0F9
:1011F00007002081BDE8F08130B50C46002101894F
:10120000C9B24FF6FF7505EA032515432543294367
:10121000018130BD2DE9F04105460E46174698463E
:10122000002443463A4631462846FFF7E5FF2C891D
:101230004FF6F870044044F007044FF68F700440F6
:1012400044F070042C81BDE8F081F0B504460D46F1
:1012500016461F463B46324629462046FFF7CCFF3E
:10126000208940F480402081F0BD01858282704752
:101270000A46002101884FF68F73194011430180FF
:101280007047F0B50C4615461E460021002200238B
:101290000189028B038C4FF6F877394021434FF6D2
:1012A000FC473A4040F201173A434FF6DD773B40A6
:1012B0004FF6FF7707EA06172F433B43018102836E
:1012C0000384F0BD0A460021018B4FF68F7319404D
:1012D0001143018370470A460021018B48F6FF73D2
:1012E00019404FF6FF7303EA022319430183704745
:1012F0000A460021818B4FF68F7319401143818379
:1013000070470A460021818B48F6FF7319404FF65B
:10131000FF7303EA022319438183704721B10288D6
:1013200042F08002028004E002884FF67F731A4088
:101330000280704721B1828842F00402828004E07A
:1013400082884FF6FB731A408280704721B18288F1
:1013500042F00802828004E082884FF6F7731A4058
:101360008280704721B1828842F00102828004E0CD
:1013700082884FF6FE731A40828070470A46002129
:10138000018B4FF6F77319401143018370470A46EA
:101390000021018B4FF2FF7319404FF6FF7303EAF0
:1013A00002231943018370470A460021818B4FF6BF
:1013B000F77319401143818370470A460021818BDE
:1013C0004FF2FF7319404FF6FF7303EA02231943EC
:1013D000818370470A460021018B4FF6FB73194049
:1013E0001143018370470A460021018B4FF6FF33FA
:1013F00019404FF6FF7303EA022319430183704734
:101400000A460021818B4FF6FB73194011438183FB
:1014100070470A460021818B4FF6FF3319404FF683
:10142000FF7303EA02231943818370470A460021B0
:10143000018B4FF67F7319401143018370470A46B1
:101440000021018BC1F30E014FF6FF7303EA022363
:101450001943018370470A460021818B4FF67F7341
:1014600019401143818370470A460021818BC1F3E3
:101470000E014FF6FF7303EA02231943818370477D
:101480000A460021018C4FF6FD7319401143018477
:1014900070470A460021018C4FF6F773194011433B
:1014A000018470470A460021018C4FF6DF73194012
:1014B0004FF6FF7303EA02131943018470470A468B
:1014C0000021018C4FF67F7319404FF6FF7303EA3A
:1014D00002131943018470470A460021018C4FF61C
:1014E000FF5319404FF6FF7303EA022319430184A7
:1014F00070470A460021018C4FF2FF7319404FF6E6
:10150000FF7303EA02231943018470470A4600214E
:10151000018C4DF6FF7319404FF6FF7303EA023357
:1015200019430184704730B5002301248C40A3B2D5
:10153000048C9C430484048C02FA01F5ADB22C4364
:10154000048430BD30B5002304248C40A3B2048C45
:101550009C430484048C02FA01F5ADB22C4304844C
:1015600030BD70B503460020002418461830012510
:101570008D40ACB21D8CA5431D8409B1082909D149
:1015800000EB6100056825F07005056005681543EE
:1015900005600EE00D1FC5F34E052844056825F4CF
:1015A000E045056005684FF6FF7606EA02263543FA
:1015B000056070BD21B1028842F00202028004E0A1
:1015C00002884FF6FD731A400280704721B10288ED
:1015D00042F00402028004E002884FF6FB731A40D6
:1015E0000280704721B1828842F08002828004E04C
:1015F00082884FF67F731A408280704702884FF6C8
:10160000F7731A40028002880A430280704782887A
:101610004FF68F731A40828082880A438280704717
:1016200002894FF6F8731A40028102890A43028147
:10163000704702894FF67F731A40028102890A437C
:101640000281704781847047818570478186704729
:101650000187704781877047A0F840107047028863
:101660004FF6FF431A40028002880A430280704707
:101670000146888E70470146088F70470146888F63
:1016800070470146B1F8400070470146888C7047AA
:101690000146088D704702460020138A0B400BB1AB
:1016A000012000E000207047CA430282704730B535
:1016B0000246002000230024158A05EA01039589CB
:1016C00005EA010413B10CB1012000E0002030BD97
:1016D000CA4302827047000010B50446FB488442AA
:1016E00009D10121880300F083FB00214FF48040E1
:1016F00000F07EFB32E0F648844209D10121480423
:1017000000F083FB00214FF4003000F07EFB25E069
:10171000F048844209D10121880400F076FB0021C1
:101720004FF4802000F071FB18E0EB48844209D1AF
:101730000121C80400F069FB00214FF4002000F0F3
:1017400064FB0BE0E548844208D10121080500F064
:101750005CFB00214FF4801000F057FB10BD2DE919
:10176000F04786B005460E460024A24600BFA146BB
:101770000027B08900B100BF2F462C8A4CF6FF70BD
:101780000440F08804432C82AC894EF6F3100440E8
:10179000B08831890843718908430443AC81AC8A1D
:1017A0004FF6FF400440B0890443AC8201A800F02A
:1017B00098FAC648874202D1DDF810A001E0DDF8B2
:1017C0000CA0A88900F4004040B10AEBCA0000EB6D
:1017D0000A1031684900B0FBF1F807E00AEBCA00D3
:1017E00000EB0A1031688900B0FBF1F86420B8FB07
:1017F000F0F004012009642101FB1089A88900F49C
:10180000004040B1322000EBC900B0FBF1F000F025
:101810000700044308E0322000EB09106421B0FB0C
:10182000F1F000F00F0004432C8106B0BDE8F08712
:101830004FF41651016000218180C18001810C218B
:10184000418100218181704710B502460020108A35
:101850004FF2FF0318400B884C8823438C882343A6
:10186000CC8823431843108210BD002101804180A1
:101870008180C180704721B1828942F40052828107
:1018800004E082894DF6FF731A4082817047F0B5FB
:101890000346002400260025002040F66A17B942BE
:1018A00000D100BF1846C1F3421401F01F06012702
:1018B00007FA06F5012C01D10C3004E0022C01D10D
:1018C000103000E014301AB107682F43076002E0BF
:1018D0000768AF430760F0BD1AB1838A0B43838268
:1018E00002E0838A8B4383827047028A4FF6F0734B
:1018F0001A400282028A0A430282704782894FF2AA
:10190000FF731A40828182890A438281704721B124
:10191000828942F00202828104E082894FF6FD73DF
:101920001A4082817047028A4FF6DF731A400282A2
:10193000028A0A430282704721B1028A42F480423D
:10194000028204E0028A4BF6FF731A40028270475B
:10195000C1F308028280704701468888C0F30800FE
:101960007047818941F0010181817047028BD2B2B9
:101970000283028B42EA012202837047028B02F447
:101980007F420283028B0A430283704721B1828A1D
:1019900042F02002828204E0828A4FF6DF731A400E
:1019A0008282704721B1828A42F01002828204E072
:1019B000828A4FF6EF731A408282704721B1828A81
:1019C00042F00802828204E0828A4FF6F7731A40DE
:1019D0008282704721B1828942F40042828103E011
:1019E0008289C2F30E028281704721B1828A42F459
:1019F0000062828204E0828A4FF2FF731A40828280
:101A00007047828A4FF6FB731A408282828A0A43A9
:101A10008282704721B1828A42F00202828204E00F
:101A2000828A4FF6FD731A40828270470246002078
:101A3000B1F5007F00D100BF13880B400BB101202E
:101A400000E00020704701F40072B2F5007F00D181
:101A500000BFCA430280704770B5024600240023CD
:101A60000025002040F66A16B14200D100BFC1F344
:101A7000421501F01F03012606FA03F3012D02D1DE
:101A80009689334006E0022D02D1168A334001E0E8
:101A9000968A33400C12012606FA04F41688344064
:101AA00013B10CB1012000E0002070BD10B5002280
:101AB000002340F66A14A14200D100BF0A1201249B
:101AC0009440A3B2DC43048010BD00000038014004
:101AD0000044004000480040004C004000500040DE
:101AE000DF48006840F00100DD49086008464068B2
:101AF000DC490840DA49486008460068DA4908408D
:101B0000D74908600846006820F48020086008462D
:101B1000406820F4FE0048604FF41F008860704762
:101B2000CF49096821F48031CD4A11601146096816
:101B300021F480211160B0F5803F03D0B0F5802FF3
:101B40000ED106E0C649096841F48031C44A1160EB
:101B500007E0C349096841F4A021C14A116000E0CF
:101B600000BF00BF704710B50146002200230020CF
:101B70004A11012A02D1BA4C236806E0022A02D196
:101B8000B74C236A01E0B64C636A01F01F020124DE
:101B900094401C400CB1012000E0002010BD38B57D
:101BA000002000900024002500BF3120FFF7DBFF5C
:101BB00005460098401C00900098B0F5A06F01D039
:101BC000002DF2D03120FFF7CEFF08B1012400E054
:101BD0000024204638BD01460020A14A106820F0AC
:101BE000F80040EAC10010607047A04908607047E3
:101BF000024600209A4B586820F47C1042EA010308
:101C00001843974B586070479849086670470146DB
:101C10000020934A506820F003000843506070474A
:101C20008F48406800F00C007047014600208C4A45
:101C3000506820F0F00008435060704701460020D3
:101C4000874A506820F4E0600843506070470146BE
:101C50000020834A506820F4605040EAC100506080
:101C6000704729B17E4A527A02437D4B5A7204E092
:101C70007B4A527A82437A4B5A7270477B49D831F9
:101C80000860704701460020754A506820F44040C3
:101C90000843506070470021714A20321170704A29
:101CA00082F82010012802D004280AD104E0012182
:101CB0006B4A2032117005E00521694A203211700B
:101CC00000E000BF00BF7047694908607047644981
:101CD000096A0143624A11627047654944390860E4
:101CE000704730B500210022002400235C4D6D6850
:101CF00005F00C0121B1042905D0082923D105E004
:101D00005C4D056022E05B4D05601FE0544D6D6841
:101D100005F47012524D6D6805F48034022505EB10
:101D200092421CB9544D554305600BE04C4D6D6813
:101D300005F400351DB1504D5543056002E04D4D91
:101D40005543056002E04B4D056000BF00BF444DA8
:101D50006D6805F0F0010909484D6B5C0568DD40D0
:101D600045603F4D6D6805F4E061090A434D6B5CC9
:101D70004568DD4085603A4D6D6805F46051C90ADB
:101D80003E4D6B5C4568DD40C560354D6D6805F4C2
:101D90004041890B3A4D6B5CC568B5FBF3F50561B5
:101DA00030BD29B12E4A526902432D4B5A6104E0DD
:101DB0002B4A526982432A4B5A61704729B1284AFB
:101DC00092690243264B9A6104E0254A9269824354
:101DD000234B9A61704729B1214AD2690243204BB3
:101DE000DA6104E01E4AD26982431D4BDA61704712
:101DF00029B11B4AD2680243194BDA6004E0184A41
:101E0000D2688243164BDA60704729B1144A1269CE
:101E10000243134B1A6104E0114A12698243104BCA
:101E20001A61704712494039086070470F49C86409
:101E300070470B49C87170470948406A40F080708C
:101E400007494862704701460020054A92680A40E7
:101E50000AB1012000E000207047014988727047F4
:101E6000001002400000FFF8FFFFF6FE00004242B3
:101E70008004424200127A0000093D002C0000203C
:101E80003C0000200E49086070470D4948607047CB
:101E90000B49886070474AF6AA20094908607047D4
:101EA0004CF6CC4006490860704701460020044AC1
:101EB000D2680A400AB1012000E00020704700000B
:101EC0000030004001460020FE4A106800F0380053
:101ED000084310607047FB49096821F00801F94A7E
:101EE000116011460968014311607047F54909689E
:101EF00021F01001F34A1160114609680143116095
:101F00007047F148EF494860F04848607047EE4834
:101F1000EC494860ED4848607047EA48006940F085
:101F20008000E84908617047E648006940F0800099
:101F3000E449086170470420E249C96801F00101E1
:101F400009B101200EE0DF49C96801F0040109B1BF
:101F5000022007E0DB49C96801F0100109B1032044
:101F600000E00420704700B502460423FFF7E3FFBA
:101F7000034603E0FFF7DFFF0346521E012B01D1AA
:101F8000002AF7D102B90523184600BD30B5044632
:101F900004254FF43020FFF7E6FF0546042D17D146
:101FA000C848006940F00200C6490861084644611B
:101FB000006940F0400008614FF43020FFF7D3FF84
:101FC0000546C048006941F6FD710840BD490861F9
:101FD000284630BD10B504244FF43020FFF7C3FF6E
:101FE0000446042C16D1B748006940F00400B549F6
:101FF00008610846006940F0400008614FF4302055
:10200000FFF7B1FF0446AF48006941F6FB71084095
:10201000AC490861204610BD00B502460423FFF715
:102020008AFF034603E0FFF786FF0346521E012B9B
:1020300001D1002AF7D102B90523184600BD10B519
:1020400004244FF43020FFF7E7FF0446042C16D198
:102050009C48006940F004009A49086108460069FC
:1020600040F0400008614FF43020FFF7D5FF0446F0
:102070009448006941F6FB71084092490861204686
:1020800010BD00208F49C96901F0020109B101208A
:1020900000E00020704730B5A5250424FFF7F1FFCC
:1020A00000B100254FF43020FFF75DFF0446042CFB
:1020B0003AD1854883498860844888600846006929
:1020C00040F0200008610846006940F040000861C7
:1020D0004FF43020FFF747FF0446042C1BD179480A
:1020E000006941F6DF7108407649086108460069D9
:1020F00040F01000086176480580E002FFF733FFEA
:102100000446052C10D06F48006941F6EF71084075
:102110006C49086108E0052C06D06A48006941F660
:10212000EF71084067490861204630BD78B5064622
:102130000C46042500200090E802FFF714FF054636
:10214000042D24D15F48006940F001005D49086119
:102150003480E802FFF707FF0546042D10D1B01CBC
:102160000090200C00990880E802FFF7FCFE05466D
:102170005448006941F6FE7108405249086106E082
:102180005048006941F6FE7108404E4908612846F2
:1021900078BD70B504460D460426F002FFF7E3FE55
:1021A0000646042E11D14748006940F00100454918
:1021B00008612580F002FFF7D6FE06464148006917
:1021C00041F6FE7108403F490861304670BD70B568
:1021D00005460E460424E002FFF7C5FE0446042C23
:1021E00017D13948374988603848886008460069FF
:1021F00040F0100008612E80E002FFF7B4FE0446B4
:10220000052C06D02F48006941F6EF7108402D4992
:102210000861204670BD2DE9F04304464FF6FF7675
:102220003746B046B1460425E443E6B2C4F3072777
:10223000C4F307484FEA1469E802FFF794FE054625
:10224000042D49D120481F498860204888600846ED
:10225000006940F010000861FF2E06D01C480830CD
:102260000680E802FFF77FFE0546042D08D1FF2F08
:1022700006D017480A300780E802FFF774FE0546CB
:10228000042D0AD1B8F1FF0F07D011480C30A0F887
:102290000080E802FFF767FE0546042D0AD1B9F178
:1022A000FF0F07D00A480E30A0F80090E802FFF7B1
:1022B0005AFE0546052D0FD00248006941F6EF7120
:1022C000084007E00020024023016745AB89EFCDBD
:1022D00000F8FF1F664908612846BDE8F08330B565
:1022E000054604244FF43020FFF73DFE0446042C3D
:1022F00041D160485E4988605F488860084600694F
:1023000040F0200008610846006940F04000086184
:102310004FF43020FFF727FE0446042C22D1544806
:10232000006941F6DF7108405149086108460069BB
:1023300040F0100008611DB100205049088002E003
:10234000A5204E4908804FF43020FFF70CFE0446CC
:10235000052C10D04648006941F6EF710840444909
:10236000086108E0052C06D04148006941F6DF719C
:1023700008403F490861204630BDF0B505460E468D
:10238000174604243B483A4988603B488860E0028D
:10239000FFF7E9FD0446042C19D13548006940F0E7
:1023A00010003349086147F0F800304328433349AF
:1023B000891C0880E002FFF7D6FD0446052C06D0F4
:1023C0002B48006941F6EF71084029490861204611
:1023D000F0BD2748C069800870472548006A7047EB
:1023E00000202349096801F0200109B1012000E023
:1023F0000020704729B11E4A126902431C4B1A6122
:1024000004E01B4A12698243194B1A617047014666
:102410000020012908D1164AD26902F001020AB14E
:10242000012008E0002006E0114AD2680A400AB103
:10243000012000E0002070470D49C860704704206B
:102440000B49C96801F0010109B101200EE00849FA
:10245000C96801F0040109B1022007E00449C96814
:1024600001F0100109B1032000E0042070470000D2
:102470000020024023016745AB89EFCD00F8FF1F24
:1024800000BFB249098801F080010029F9D0C0F3EA
:102490000801AE4A121D1180704710B503460C4664
:1024A0001846FFF7EDFF10BD00BFA848008800F0F8
:1024B00020000028F9D0A548001D0088C0F30800BE
:1024C000704710B50446FFF7EFFF0346FFF7D8FF4C
:1024D00010BD002100E0491C8142FCD3704700BFC1
:1024E0009B49098801F080010029F9D0C0F3080157
:1024F000974A121D1180704700BF9548008800F070
:1025000020000028F9D09248001D0088C0F3080080
:10251000704700BF8F49098801F080010029F9D078
:10252000C0F308018B4A121D1180704700BF894813
:10253000008800F020000028F9D08648001D00889F
:10254000C0F3080070472DE9F04107460C461546D8
:102550001E4601210D20FFF731FC01218803FFF702
:102560002DFC7D490C801820C870032088703846E7
:10257000FEF756F878490D800420C8703846FEF7FB
:102580004FF876480660002074498880C88008812A
:1025900088810C2048816D48FFF7E1F840216B48A5
:1025A000FFF751FA20216948FFF74DFA002240F267
:1025B00027716648FFF76BF9012240F22551634805
:1025C000FFF765F901216148FFF755F9BDE8F08192
:1025D0002DE9F04107460C4615461E4601210D2007
:1025E000FFF7ECFB01214804FFF7F5FB5A490C808B
:1025F0001820C870032088703846FEF711F8564935
:102600000D800420C8703846FEF70AF8534806606B
:10261000002052498880C880088188810C20488128
:102620004B48FFF79CF840214948FFF70CFA20215E
:102630004748FFF708FA002240F227714448FFF7A5
:1026400026F9012240F225514148FFF720F90121E6
:102650003F48FFF710F9BDE8F0812DE9F04107464A
:102660000C4615461E4601210D20FFF7A7FB012150
:102670008804FFF7B0FB38490C801820C87003208D
:1026800088703846FDF7CCFF33490D800420C870B0
:102690003846FDF7C5FF3148066000202F49888085
:1026A000C880088188810C2048812A48FFF757F8A4
:1026B00040212848FFF7C7F920212648FFF7C3F932
:1026C000002240F227712348FFF7E1F8012240F28F
:1026D00025512048FFF7DBF801211E48FFF7CBF812
:1026E000BDE8F08170B504460D4600BF402120468C
:1026F000FFF79CF90028F9D029462046FFF728F972
:1027000070BD10B5044604E014F8011B0F48FFF734
:10271000E9FF20780028F7D110BD10B5044604E089
:1027200014F8011B0A48FFF7DDFF20780028F7D1D5
:1027300010BD10B5044604E014F8011B0548FFF76E
:10274000D1FF20780028F7D110BD000000380140EB
:102750000044004000480040480000208000002065
:1027600008B501210D20FFF729FB01215948FEF78B
:1027700028F803208DF8020048208DF803008020FF
:10278000ADF8000069465448FDF74AFF0120ADF856
:10279000000069465148FDF743FF0220ADF80000F4
:1027A00069464E48FDF73CFF4FF48060ADF80000ED
:1027B00069464A48FDF734FF4FF40060ADF8000069
:1027C00069464648FDF72CFF4FF48070ADF80000D5
:1027D00069464148FDF724FF4FF40040ADF8000082
:1027E00069463E48FDF71CFF4FF48040ADF80000FD
:1027F00069463A48FDF714FF4FF40050ADF8000069
:1028000069463648FDF70CFF4FF48050ADF80000E4
:1028100069463248FDF704FF4020ADF800006946E4
:102820002D48FDF7FDFE2020ADF8000069462A483E
:10283000FDF7F6FE1020ADF8000069462648FDF7CA
:10284000EFFE0820ADF8000069462348FDF7E8FEDA
:1028500003208DF8020010208DF80300C002ADF8AF
:10286000000069461C48FDF7DBFE0820ADF80000BB
:1028700069461A48FDF7D4FE1020ADF800006946FD
:102880001648FDF7CDFE2020ADF80000694613483C
:10289000FDF7C6FE4020ADF8000069460F48FDF781
:1028A000BFFE8020ADF8000069460C48FDF7B8FE79
:1028B0004FF48070ADF8000069460848FDF7B0FE9F
:1028C0004FF40070ADF8000069460448FDF7A8FE1B
:1028D00008BD00000004300000080140000C014069
:1028E00030B51D4800684FF47A72B0FBF2F1481E13
:1028F000B0F1807F01D301201BE0481E4FF0E022A1
:10290000506150170F22002807DA13071D0E134BD2
:1029100000F00F04241F1D5503E013071C0E104B7D
:102920001C5400BF00204FF0E0229061072010618E
:10293000002008B100BFFEE730BD0A4908687047B3
:1029400000B50246FFF7F9FF034600BFFFF7F5FFAA
:10295000C01A9042FAD300BD1800002018ED00E024
:1029600000E400E04C0000201FB51E208DF80C0094
:1029700001208DF80D0002208DF80E0001208DF849
:102980000F0003A8FDF783FD01210420FFF723FAC0
:1029900040F2CF70ADF8040048F69F40ADF800005B
:1029A0000020ADF80600ADF8020069460648FEF7C3
:1029B00059F8012211460448FEF7CBFB01210248D9
:1029C000FEF7ACFB1FBD00000008004010B5002260
:1029D0004FF40041F748FDF7D4FE00221021F648DD
:1029E000FDF7CFFE00220821F348FDF7CAFE0022C2
:1029F0002021F148FDF7C5FE00224021EE48FDF7F9
:102A0000C0FE00228021EC48FDF7BBFE00224FF4FF
:102A10008071E948FDF7B5FE00224FF40071E648E9
:102A2000FDF7AFFE10BD10B50446092C36D2DFE825
:102A300004F035050B11171D23292F000122D103A6
:102A4000DC48FDF79EFE2AE001220821DA48FDF766
:102A500098FE24E001221021D748FDF792FE1EE0E7
:102A600001222021D448FDF78CFE18E001224021EC
:102A7000D148FDF786FE12E001228021CE48FDF705
:102A800080FE0CE001221102CB48FDF77AFE06E041
:102A900001225102C848FDF774FE00E000BF00BFEC
:102AA00010BD10B50446092C39D2DFE804F0380512
:102AB0000C12181E242A310000224FF40041BD4898
:102AC000FDF75FFE2CE000220821BB48FDF759FE10
:102AD00026E000221021B848FDF753FE20E0002236
:102AE0002021B548FDF74DFE1AE000224021B248F2
:102AF000FDF747FE14E000228021AF48FDF741FEBC
:102B00000EE000224FF48071AB48FDF73AFE07E07B
:102B100000224FF40071A848FDF733FE00E000BF2B
:102B200000BF10BD10B5FFF751FF0221A248FDF70D
:102B30000AFE28B90120FFF703FF03209F49087010
:102B400040219C48FDF7FFFD28B90120FFF7F8FE62
:102B500002209A49087010BD10B580219548FDF7F4
:102B6000F2FD48B90120FFF7EBFE0120FFF75BFF04
:102B70000320FFF758FF05E00120FFF792FF032035
:102B8000FFF78FFF4FF480618B48FDF7DCFD50B9F4
:102B90000120FFF7D5FE012088490870FFF781FF6B
:102BA0000320FFF77EFF10BD10B50420FFF73BFFA9
:102BB0000220FFF776FF4FF480417F48FDF7C3FD09
:102BC00040B90120FFF7BCFE01207C4908700420B9
:102BD000FFF767FF10BD70B504460D46102175481C
:102BE000FDF7B1FD30B9C820FFF7AAFE2078401CE0
:102BF00020700AE008216F48FDF7A5FD28B9C8201C
:102C0000FFF79EFE2078401E207021786CA000F017
:102C10001FFB2078002802DC6320207004E020786D
:102C2000A84201DB0020207002206749087020784C
:102C300000F072F920215F48FDF785FD58B9C820E2
:102C4000FFF77EFE04205D490870207800F01EFA30
:102C50005EA000F0FDFA70BD70B504465CB13C208A
:102C6000B4FBF0F0401C85B2284600F055F9052071
:102C7000FFF7D9FE0CE00020534908700520FFF74C
:102C800010FF05204D49087040F6B830FFF758FE98
:102C900070BD10B50220FFF7C6FE0320FFF7C3FE8C
:102CA0004C4801684CA000F0D3FA4FF40041424870
:102CB000FDF749FD01280ED1FFF742FE45480068A7
:102CC00060B90220FFF7EDFE0320FFF7EAFE0020C7
:102CD0003A49087002E005203E49086010BD10B571
:102CE00004463648007806281DD2DFE800F01C03B1
:102CF00006111419FFF716FF18E063212046FFF7AD
:102D00006AFF2078C0EB00108000344908600DE0B5
:102D1000FFF74AFF0AE031480068FFF79DFF05E032
:102D2000FFF7B7FF02E0FFF717FF00BF00BF10BDBE
:102D300010B5FFF74BFE10BD10B501211E48FDF781
:102D400002FD18B90120FFF76EFE02E00120FFF737
:102D5000A8FE02211848FDF7F6FC18B90220FFF77B
:102D600062FE02E00220FFF79CFE4FF480611248F1
:102D7000FDF7E9FC18B90320FFF755FE02E0032038
:102D8000FFF78FFE4FF400610B48FDF7DCFC18B92C
:102D90000420FFF748FE02E00420FFF782FE4FF414
:102DA00080710448FDF7CFFCD0B90520FFF73BFE4A
:102DB00019E0000000080140000C01401400002050
:102DC0000A20256400000000500000200A205275EF
:102DD0006E20000010000020202564000C00002060
:102DE0000520FFF75EFE10BD00BF0100A0F101004D
:102DF000FBD1704708B501210520FEF7DFFF012157
:102E00009A48FDF7DEFC03208DF8020010208DF8B3
:102E100003000220ADF8000069469548FDF700FC6C
:102E20000120ADF8000069469148FDF7F9FB042048
:102E3000ADF8000069468E48FDF7F2FB0022012143
:102E40008B48FDF79EFC012202218948FDF799FC81
:102E5000002204218648FDF794FC08BD10B5044605
:102E6000012C04D0022C08D0032C12D10BE001223B
:102E700011467F48FDF785FC0CE0012204217C48C7
:102E8000FDF77FFC06E0012202217948FDF779FC7D
:102E900000E000BF00BF10BD10B50446012C04D0F7
:102EA000022C08D0032C12D10BE000220121704823
:102EB000FDF767FC0CE0002204216D48FDF761FC82
:102EC00006E0002202216A48FDF75BFC00E000BF3B
:102ED00000BF10BD70B504460025002600BF18E0F5
:102EE000254605F08005802D03D10120FFF7B6FFB0
:102EF00002E00120FFF7D0FF0220FFF7AFFF05201F
:102F0000FFF772FF0220FFF7C7FF6006040E701C78
:102F1000C6B2082EE4DB70BD70B504460A2094FBEF
:102F2000F0F100FB114053490D5C2846FFF7D2FF3A
:102F30000A2094FBF0F04F490D5C2846FFF7CAFFCA
:102F40000320FFF7A9FF0520FFF74EFF0320FFF73F
:102F500085FF70BD70B5054600242C4607E020466D
:102F6000FFF7DAFF0120FFF7EBFC601EC4B2002C74
:102F7000F5DC70BD10B540498878FFF7ABFF3E49DE
:102F80004878FFF7A7FF3C490878FFF7A3FF032025
:102F9000FFF782FF0520FFF727FF0320FFF75EFF03
:102FA00010BD10B535498878FFF794FF334948784C
:102FB000FFF790FF31490878FFF78CFF0320FFF7F8
:102FC0006BFF0520FFF710FF0320FFF747FF10BD41
:102FD00070B505460C462046FFF77CFF2846FFF7F4
:102FE00079FF0320FFF758FF0520FFF7FDFE0320C0
:102FF000FFF734FF70BD2DE9F04706462049304603
:1030000000F082FA824600F05FFA84B20A2094FB54
:10301000F0F0C5B20A2094FBF0F100FB1140C7B2FA
:103020000A2095FBF0F000F0FF080A2095FBF0F174
:1030300000FB115000F0FF091249C85DFFF74AFF7D
:10304000114911F80900FFF745FF0E4911F8080072
:10305000FFF740FF0320FFF71FFF0520FFF7C4FE27
:103060000320FFF7FBFEBDE8F087000000043000FE
:10307000000801405B000020720000206F0000206B
:1030800000002041510000206500002010B50446DA
:10309000FEF737FF0B480068FEF778FF0948214626
:1030A0000268002000F0A3F8C820FFF749FCFEF7F3
:1030B00034FF10BD10B503480168002000F091F8FE
:1030C00010BD000078000020F8B504460E4604202C
:1030D000009000270025FEF714FF301BC70A35209B
:1030E000FFF7AAF900BF07E04FF4006101FB0540BC
:1030F000FEF74CFF00906D1CBD4203D29DF800000E
:103100000428F1D0FEF709FFF8BDF8B504460D46D6
:10311000164604200090FEF7F4FE3420FFF78CF9E9
:1031200005E031462046FFF701F80090641CAC42F0
:1031300003D29DF800000428F3D0FEF7EEFEF8BDA0
:10314000F8B504460D46164604200090FEF7D9FE59
:103150003420FFF771F905E031462046FEF7E6FF1F
:103160000090A41CAC4203D29DF800000428F3D0C8
:10317000FEF7D3FEF8BDF8B504460D46164604200A
:103180000090FEF7BEFE3420FFF756F905E0314609
:103190002046FEF7CBFF0090241DAC4203D29DF8E1
:1031A00000000428F3D0FEF7B8FEF8BD70B5044661
:1031B000FEF7A7FE2578FEF7B0FE284670BD70B575
:1031C0000446FEF79EFE2588FEF7A7FE284670BD42
:1031D00070B50446FEF795FE2568FEF79EFE28466C
:1031E00070BD10B5024631F81230D8B210BD2DE9CD
:1031F000F04104460D4616462F463420FFF71CF9D1
:1032000006EB44003946FEF7C4FFBDE8F08100003C
:103210000948804709480047FEE7FEE7FEE7FEE76A
:10322000FEE7FEE7FEE7FEE7FEE7FEE704480549A6
:10323000054A064B7047000083030008ED000008B4
:10324000F0000020F0060020F0020020F002002034
:103250000FB4044910B503AA029800F0CFF810BCCF
:103260005DF814FB400000202DE9F0410E460446B5
:10327000002020622046E168884730B3252805D029
:10328000D4E901219047206A401CF2E7E16820461A
:1032900000278847050018D0A5F14100192802D859
:1032A00020354FF400673246294620462760FCF758
:1032B00057FF40B1012804D0F61D26F00706083656
:1032C000D8E7361DD6E72846DAE7206ABDE8F08160
:1032D0002DE9F0410646002410687529314615A5F0
:1032E00010D0AFF30080002802DA404212A507E0B8
:1032F00031688A0701D511A502E0490704D510A558
:10330000012401E0AFF3008000210A2306F1240725
:1033100007E0B0FBF3F203FB1200303078541046A4
:10332000491C0028F5D123462A463046BDE8F04125
:1033300000F00BB8000000002D0000002B00000082
:10334000200000007047704770472DE9F0470D4698
:1033500099469246044600F124080168880604D57F
:10336000E06921F01001216000E00120A84201DDA8
:10337000471B00E00027A1697A1902EB0900081A2F
:10338000A0612078C00602D42046AFF3008000265A
:1033900008E0D4E901211AF806009047206A401C91
:1033A000761C20624E45F4DB2078C0060AD5204604
:1033B000AFF3008006E0D4E9012130209047206A75
:1033C000401C2062381EA7F10107F4DC07E0D4E9B5
:1033D000012118F805009047206A401C2062281E31
:1033E000A5F10105F3DC2046AFF30080207800064C
:1033F00002D50220BDE8F0870120FBE7074B70B53E
:103400000D467B4400F011F80446284600F020F8F1
:1034100010B14FF0FF3070BD204670BD95F0FFFF3A
:1034200001694A1C02610878704700B58FB0CDE988
:1034300001310021059105497944CDE90310114678
:103440006846FFF711FF0FB000BD0000E5FFFFFF6A
:10345000007B00F080007047754600F029F8AE460A
:1034600005006946534620F00700854618B020B590
:10347000FFF7DCFEBDE820404FF000064FF00007EC
:103480004FF000084FF0000B21F00701AC46ACE80C
:10349000C009ACE8C009ACE8C009ACE8C0098D4679
:1034A00070470446AFF300802046FCF76BFE000037
:1034B000004870479000002001491820ABBEFEE78D
:1034C0002600020070470000C10DD1F19E0206DB0C
:1034D0004FEA002343F0004323FA02F07047004212
:1034E00007D54FEA4001B1F1FE4F02D24FF0000084
:1034F000704710B500F089F8499224800020704789
:103500006FEA2000704700004FF47F0C1CEAD012D5
:103510001EBF1CEAD11392EA0C0F93EA0C0F00F0C5
:10352000478090EA010F48BF42F480724FF0004C90
:103530004CEA00204CEA012102EB0302A0FB01133C
:10354000A2F50002002918BF43F001035B0028BF69
:103550004FEA330342EB22425FEA132C4CEBC2509A
:103560002EBFBCEB436FB2F57C0F70474FEA036C84
:10357000BCF1004F08BF20F00100B2F57C0F38BF4E
:1035800070470BD582F0FF0212F5803FC8BF70472D
:1035900000F1C040D8BF00F00040704700F5000CBB
:1035A0005FEA4C0C48BF7047B0F1C04000F073B800
:1035B00090EA010F0CEAD11348BF42F480726245D1
:1035C00038BF634504D280EA010000F00040704734
:1035D00010B500F01AF800BF8900013E00F007B8EE
:1035E00000F009B85FEA410C5FEA1C6C08D080EA81
:1035F000010000F050B85FEA400C5FEA1C6CF6D1A5
:103600004FF00040A0F5800070470EF1020E2EF042
:10361000030E5EF8044B244204D44FEA4102B2F197
:103620007F4F11D84FEA4003B3F17F4F0CD80ED132
:103630004FEAD07CB2F17F4F0CEB4C0C0CF1020C3A
:1036400008BF4CEBD17C04E04FF0080C01E04FEADE
:10365000D17C0CEB4C0324FA03F404F00704B4F11E
:10366000040C06D20EEB840CBDE810404CF0010CAB
:103670006047DFE80CF0070802024FF00040A0F5B9
:10368000800010BD0846420018BFD2F1807288BF8A
:1036900000F0004010BDFF2141EAD050C005704746
:1036A000C03600080000002080000000280100084B
:1036B0004037000880000020700600004401000828
:1036C00000000000000000000000000000000000FA
:1036D000050000000000000000A24A0400000000F5
:1036E00000000000010203040607080900000000B2
:1036F0000102030401020304060708090204060884
:1037000000000000000000000000000000000000B9
:1037100000C0F9A4B0999282F88090C0F9A4A89949
:103720008A82F8808840792430191202780010C605
:1037300088C788C1C800000000F0000800F4000835
:04000005080000ED02
:00000001FF
